:100000000040002051780000A1780000A178000095
:10001000A1780000A1780000A17800000000000095
:10002000000000000000000000000000A1780000B7
:10003000A178000000000000A17800005D700000C1
:10004000A1780000A1780000A17800006D70000088
:10005000A1780000A1780000A1780000A17800003C
:10006000A1780000A1780000A1780000A17800002C
:10007000A1780000A1780000A1780000A17800001C
:10008000A1780000A1780000A1780000A17800000C
:10009000A1780000A570000015710000A178000093
:1000A000A1780000A1780000A1780000A1780000EC
:1000B000A1780000A178000005780000A178000078
:1000C000A1780000A1780000A1780000A1780000CC
:1000D000A1780000A1780000A1780000A1780000BC
:1000E000A1780000A1780000A1780000A1780000AC
:1000F000A1780000A1780000A1780000A17800009C
:10010000A1780000A1780000A1780000A17800008B
:10011000A1780000A1780000A1780000456B0000E4
:10012000A1780000A1780000A1780000A17800006B
:10013000A1780000A1780000A1780000A17800005B
:10014000A1780000656B0000A1780000A178000094
:10015000A1780000A178000010B5054C237833B9D0
:10016000044B13B10448AFF300800123237010BD8A
:10017000D801002000000000FC8A000008B5034BF5
:100180001BB103490348AFF3008008BD0000000025
:10019000DC010020FC8A0000A3F5803A704700BF14
:1001A000154B002B08BF114B9D46FFF7F5FF0021B3
:1001B0008B460F461148124A121A01F0C9F90C4B2E
:1001C000002B00D098470B4B002B00D09847002005
:1001D000002104000D000B4800F016F801F068FA49
:1001E0002000290007F01CF900F014F800000800B6
:1001F000000000000000000000400020D8010020A6
:100200002805002001170000002301461A46184661
:1002100001F068BB08B5064B044613B1002101F09C
:10022000BFFB044B1B6803B19847204608F004F954
:10023000A11900002C0300202DE9F04755EC104BCC
:1002400084B0002D0D9E894692463DDB0027652E29
:100250001F7035D03DDC452E32D0462E5AD10321B9
:1002600003AB019302AB009345EC104B0C9B4A4649
:1002700001F098FC074626F02003462B07EB0908FF
:1002800005D13B78302B39D00C9B1B689844204615
:1002900029460022002307F057FF002838D1039B8E
:1002A000984506D930215A1C03921970039B434587
:1002B000F9D30E9ADB1B3846136004B0BDE8F08713
:1002C00009F101090221CBE705F100422D2715466E
:1002D000BDE7662EC3D003AB019302AB009345ECA0
:1002E000104B0C9B4A46022101F05CFC672E07462E
:1002F000C1D11AF0010F1ED1039BDAE700220023BF
:100300002046294607F020FFC0B10C9B1B6898448B
:100310004346CEE703AB019302AB009345EC104B91
:100320000C9B4A46022101F03DFC472E0746A2D114
:100330001AF0010FE0D007EB0908A8E70C9AC9F101
:1003400001031360A2E700BF70B50029BABF49429C
:100350002D232B23092982B0027043702BDD0DF170
:100360000704194DA446A5FB0123DB0803EB830218
:10037000A1EB42028E463032BEF1630F66460CF8A6
:10038000012C19460CF1FF3CEDDCB31E3031A342C9
:100390000CF8011C00F102050AD2421C13F8011BE3
:1003A00002F8011FA342F9D10DF109039B1B1D4463
:1003B000281A02B070BD30231944051D8370C17026
:1003C000281A02B070BD00BFCDCCCCCC2DE9F04FC7
:1003D0008DB00C46DDF8588016461F46054601F0E4
:1003E0000BF903680693184601F00AFA00230A93F2
:1003F000D8F800300790073323F0070303F1080211
:10040000D4F800A094F818B0C8F8002093ED007B51
:100410008DED047B9DED047B53EC172B904623F070
:10042000004984ED127B9F4B4FF0FF324046494616
:1004300007F0BCFE40B99B4B404649464FF0FF32A7
:1004400007F096FE002871D0DDE9040102460B4654
:1004500007F0ACFE002840F0298261684B1C4AF48A
:1004600080620BF0DF0832D0B8F1470F00F0228134
:100470000023226003930AAB029309AB00939DED26
:10048000040BCDF804B00DF123032846FFF7D4FE8A
:100490008146BBF1650F099937D9BBF1660F00F0B2
:1004A00028810A9B8B4240F32F810029D4BFC1F1E0
:1004B0000202012213442361A1654FF0000A9DF856
:1004C0002330002B4AD02D2384F8433046E0062108
:1004D00000232260CDF804B0616003930AAB02935D
:1004E00009AB00939DED040B0DF123032846FFF7A4
:1004F000A3FEB8F1470F8146CBD10999C81C80F201
:10050000F180ABF1020B5FFA8BFB01395A4604F123
:1005100050000991FFF718FF0A9A1318012A824622
:10052000236140F3378101332361C8E7DDE904012A
:100530000022002307F012FE10B12D2384F843306F
:100540002AF00402584B2260584ABBF1470F8CBF77
:1005500091469946032323614FF0000A00973346E2
:100560000BAA2146284600F0BFF9013023D02368AA
:1005700058052BD423694A4631462846B8470130EE
:1005800019D02268E0680B9B920719D5984217DDB5
:100590004FF0000804F1190904E0E0680B9BC21A4F
:1005A00042450DDD01234A4631462846B847013011
:1005B00008F10108F1D14FF0FF300DB0BDE8F08F28
:1005C0009842B8BF18460DB0BDE8F08FBBF1650F7B
:1005D00033D9D4E912010022002307F0B5FD002829
:1005E00000F09A80324A012331462846B84701304C
:1005F000E1D0DDE9093A534502DB2268D107C1D5D4
:10060000DDE9062331462846B8470130D3D0BAF198
:10061000010FB6DD0AF1FF3A4FF0000904F11A08A4
:1006200001E0D145ADD00123424631462846B847C6
:10063000013009F10109F4D1BDE7DDF82880B8F1F6
:10064000010F40F3988001234A4631462846B847B7
:100650000130B0D0DDE9062331462846B8470130E5
:10066000A9D0D4E912010022002308F1FF3B07F0D2
:100670006BFD002800F09380B8F1010F40F38680F5
:100680004FF0000904F11A0801E0D9457ED001239A
:10069000424631462846B847013009F10109F4D1F4
:1006A00089E700BFFFFFEF7F5484000058840000FB
:1006B0006484000009B90121616000232260039372
:1006C0000AAB029309AB00939DED040BCDF804B087
:1006D0000DF123032846FFF7AFFD09998146C81C99
:1006E000FFF60FAF636899423FF70BAF4FF0670B10
:1006F000D7E60029636856DD2161002B00F0858074
:1007000001330B442361D7E623682161DB077FF5C2
:10071000D3AE4B1C2361CFE6099B002B4ADD0A9B1D
:10072000D4F858B004935B45A8BF5B46002B9846AD
:1007300008DD4A4631462846B84701303FF43BAF12
:10074000D4F858B028EAE87293456BDD4FF0000A00
:1007500004F11A08934604E0A36DA3EB0B02524583
:100760005FDD0123424631462846B84701300AF191
:10077000010AF1D11FE7D9073FF565AF4A460123CA
:1007800031462846B84701303FF415AF534604F1CF
:100790005002F1E62268D2077FF591AEC3E65B46D0
:1007A00009F10102ECE7002B34D12268D20731D4E1
:1007B000012380E6494A012331462846B8470130E3
:1007C0003FF4F9AEDDE9093A5AEA030324D0DDE942
:1007D000062331462846B84701303FF4ECAE099B6A
:1007E000002B78DA4FF0000B04F11A0803E0099BA4
:1007F0005B425B456FDD0123424631462846B847E0
:1008000001300BF1010BF2D1D5E62268D0077FF55C
:1008100053AE75E702334EE62268D3077FF5B2AEDA
:10082000D5E79B46099B049A9A4202DC2268D007CE
:1008300008D5DDE9062331462846B84701303FF4A4
:10084000BAAE099B049AA2EB0B0AD31A9A45A8BF29
:100850009A46BAF1000F0BDD09EB0B025346314605
:100860002846B84701303FF4A6AE099B049AD31A34
:100870002AEAEA7A53457FF784AEDDF810B04FF0EC
:10088000000904F11A0807E0099BABEB0303A3EB93
:100890000A034B457FF775AE012342463146284691
:1008A000B847013009F10109EED184E6059B0C4AF5
:1008B000002BBCBF2D2384F843302AF004032360AF
:1008C000084BBBF1470F8CBF914699460323236128
:1008D0004FF0000A42E653464A464DE66484000063
:1008E000608400005C8400002DE9F84F92461F46AA
:1008F0000A698B68DDF828909A42B8BF1A46CAF890
:10090000002091F843300C46064613B10132CAF874
:100910000020226891065FD5DAF800300233CAF869
:100920000030226812F0060F11461DD1E16899428D
:10093000D8BF114618DD4FF0000804F1190B05E08F
:10094000E568DAF80030ED1A45450CDD01235A461A
:1009500039463046C847013008F10108F0D14FF060
:10096000FF30BDE8F88F216894F84330003B18BF92
:1009700001238A060AD5E1185A1C302081F8430069
:10098000224494F8451082F84310023304F14302E4
:1009900039463046C8470130E1D02368DAF80050C4
:1009A000216903F00603042BD4E902201BD08A42FC
:1009B00020DD4FF00008521A90441A34002501E05F
:1009C000454517DA0123224639463046C8470130EB
:1009D00005F10105F4D1C2E712F0060F0DD0003B7E
:1009E00018BF0123D2E7401B8A4220EAE078E2DC0C
:1009F0000028E2DC0020BDE8F88FE168DAF800307A
:100A00009942D8BF114696DCAEE700BF2DE9F0470A
:100A1000174684B00A7E0C9D0C460646984601F1A6
:100A2000430C002A35D0A2F15803D9B2202969D845
:100A3000202B67D8DFE813F0E6006600660066004A
:100A40006600660066006600660066006600AC0030
:100A50007000660066006600660070006600660052
:100A60006600660021008300C60066006600B600CE
:100A70006600830066006600EC002B6822686169EE
:100A8000181D286010061B6802D4520600F1E08091
:100A900019600023E1462361CDF800803B4603AA9C
:100AA00021463046FFF720FF013020D023694A4617
:100AB00039463046C047013019D02368E068DDF878
:100AC0000C909B0718D5484516DD002504F1190A3E
:100AD00004E0E068A0EB0903AB420DDD01235246C0
:100AE00039463046C047013005F10105F1D14FF0DC
:100AF000FF3004B0BDE8F0874845B8BF484604B0B1
:100B0000BDE8F08784F84220012004F14209002367
:100B1000206184F84330BFE72A682368111D180656
:100B2000296002D4590600F195801068014600281A
:100B30006268C0F2938054484FF00A0E15E02068B6
:100B40002B6810F0800F53F8041B02D1400648BFF9
:100B500089B26F2A4C482B6014BF4FF00A0E4FF039
:100B6000080E0023626884F84330002AA26051DB3B
:100B7000236823F00403236000294BD1002A7BD192
:100B8000E146BEF1080F56D0ACEB0903236183E7C1
:100B90002B681A6804332B6004F1420984F8422060
:100BA0000120B4E72B686268191D2960D3F8009012
:100BB0000021484600F0CCFD002863D0A0EB0900DE
:100BC0006060A4E7236843F02003236078222F4865
:100BD00084F845202A6813F0800F52F8041B03D1D3
:100BE00013F0400F18BF89B22A60DA0744BF43F000
:100BF0002003236019B9236823F0200323604FF0FA
:100C0000100EAEE7582384F845301F482368E1E70B
:100C10002368DBE77546E146B1FBF5F305FB131AE4
:100C20000A46AA4210F80A1009F8011D1946F3D223
:100C3000BEF1080FA8D12368DD07A5D56268236936
:100C40009A42A1DC302309F8013C09F1FF399BE706
:100C500019801EE7B2F90010084668E72D20002A27
:100C6000A26084F8430002DB23F0040323600A251A
:100C700005484942AE46CEE7037884F8423004F195
:100C800042097EE7606842E7688400007C840000D7
:100C90002DE9F04F0C4687B0896805934B1EB3F5DC
:100CA000AE7F0646904640F2BB8127466FF4AE7099
:100CB00057F81C3B01EB000E40F25D11A16043F4BC
:100CC000F0634FF0000A236043463D46B046D346EA
:100CD000CDF810A0CDF808A0D146CDF804A00A4662
:100CE000CDF80CE01E4633681878A0F12B034E2B8C
:100CF00070D8DFE813F0C9006F00C90023016F004E
:100D00004F0053005300530053005300530053004F
:100D1000530053006F006F006F006F006F006F0093
:100D20006F001C016F006F006F000101FA006F007F
:100D30006F00EB006F006F006F006F00DC006F0052
:100D40006F006F006F006F00D6006F006F006F00C4
:100D50006F00D0006F006F006F006F006F006F00BA
:100D60006F001C016F006F006F000101FA006F003F
:100D70006F00EB006F006F006F006F00DC006F0012
:100D80006F006F006F006F00D6006F006F006F0084
:100D90006F00D0002368D90500F135811BEB0A03F1
:100DA00018D19A46236823F4C0732360D34605F80C
:100DB000010BA268013A2369A260013323617368C1
:100DC000013B002B736040F3C38033680133336011
:100DD000002A88D1334646469846B9F1000F03D021
:100DE000236823F4807323600BF1FF32012A40F261
:100DF000D0800AF1FF33062B1AD8BAF1020F40F265
:100E00004381BAF1030F13D0AAF1040A5FFA8AFAF8
:100E10006FEA0A0AAA44D4F87C3115F8011D42464B
:100E2000304698472369554503F1FF332361F2D1DA
:100E30002268D00520D5510500F13781236915F8C6
:100E4000011C013B6529236105F1FF3A0DD04529BD
:100E50000BD0D4F87C31424630469847236915F8C8
:100E6000021C013B2361A5F1020A4246D4F87C3101
:100E7000304698472268554612F0100200F0A380D1
:100E8000002007B0BDE8F08F23681906A2D523F033
:100E9000800323608BE7BAF1070F9BD14FF0080A5C
:100EA00085E7BAF1060F95D14FF0070A7FE7BBF14E
:100EB000000F40F08180B9F1000F00F0B980BAF165
:100EC000010F0DD0BAF1040F0AD083E7BAF1000F79
:100ED0004BD0BAF1030F03D0BAF1050F7FF47AAF0C
:100EE0000AF1010A5FFA8AFA61E7BAF1020F7FF4A8
:100EF00071AF4FF0030A5AE7236803F4A062B2F51A
:100F0000806F05D059057FF565AFB9F1000F36D078
:100F10009A0504D4019A0495A9EB0202029223F4E3
:100F2000F06343F4C07323604FF000093FE7BBF167
:100F3000010F7FF44FAF4FF0020B38E723689A059B
:100F40007FF548AF23F420732360CDF804902EE79B
:100F5000D4F8803131464046984700287FF43AAFB4
:100F6000A268002A7FF4BFAE34E7B9F1000F6CD15C
:100F7000236803F4E062B2F5E06F00F0BF800BF18C
:100F8000FF323346012A46464FF0000998463FF6A5
:100F900030AFBD420CD9D4F87C3115F8011D424662
:100FA000304698472369BD4203F1FF332361F2D1F4
:100FB000012007B0BDE8F08FBBF1020F7FF47FAFD7
:100FC0004FF0030BF3E62A70236803F4C063B3F514
:100FD000806F3ED0029B002B40F087800022394674
:100FE000304603F0D7FB23689A0757EC106B40D5C7
:100FF00005990B681A1D0A601B6883ED000BE368F6
:101000000133E3603CE723F080032360039B09F195
:101010000109002B3FF4CDAE039B013B0393CAE6CD
:1010200027464FF0000E57F81C3B43F4F06348E6A8
:10103000236803F4E062B2F5E06F7FF440AF23F47D
:10104000F06323604FF0010BB1E633464646984605
:10105000C6E6019B9945C1D0A3EB090204F26F13C8
:101060009D4228BF04F5B7752A49284600F004FAC6
:10107000B4E7059802685B0702F1040125D5016019
:10108000136883ED000BBAE7BD4291D9D4F87C31E7
:1010900015F8011D4246304698472369BD4203F1C9
:1010A000FF332361F2D1012083E7BD4280D9D4F818
:1010B0007C3115F8011D4246304698472369BD42F0
:1010C00003F1FF332361F2D172E7059B19601568C4
:1010D0003B4632463046394607F068F8A0B93046FC
:1010E000394607F0C1F8286089E7049D0A23691C86
:1010F000304603F0CFFC029BC21AAFE723F4F06343
:1011000023604FF0010A52E6034800F0E5FB85ED4D
:10111000000A74E790840000E0860000024A034958
:10112000034800F069B900BF00000020ED4F000047
:10113000100000200C4B4168994210B5044601D0C4
:1011400003F054FFA168094B994202D0204603F0F6
:101150004DFFE168064B994204D02046BDE810409F
:1011600003F044BF10BD00BFF40100205C0200206A
:10117000C402002008B54B6EDA0702D48B899B05A8
:1011800001D5002008BD886D00F0D8FA002008BD08
:1011900008B54B6EDA0702D48B899B0501D5002078
:1011A00008BD886D00F0D2FA002008BD2DE9F84393
:1011B000314C3249DFF8D890DFF8D880304FC4F88E
:1011C0003811002504232946082204F15C002D4E25
:1011D000E360C4E90055C4E90455A5606566A561EE
:1011E00000F0B6F904F15800C4E90849C4E90A87D7
:1011F000266300F09BFA2946234B6367082204F11B
:10120000C400C4E91A55C4E91E552567C4F8CC507A
:10121000C4F8805000F09CF904F1680304F1C000A8
:10122000C4F88830C4E92398C4E9257600F07EFA32
:10123000164BC4F8DC30294604F596700822C4E940
:101240003455C4E93855C4F8D850C4F83451C4F8FA
:10125000E85000F07DF904F1D003C4E93E87C4F8FA
:10126000F49004F59470C4F80061C4F8F030BDE85F
:10127000F84300F05BBA00BFF40100201D1100002C
:1012800025150000491500000900010012000200A8
:10129000BD140000E5140000F8B506462A4800F029
:1012A0004DFA2A4BD3F83831002B43D0284FD7E9D9
:1012B0000134013B04D524E05A1C04F1680420D019
:1012C000B4F90C50013B002DF6D1224BE36004F140
:1012D0005800656600F02AFA1B4800F037FAC4E9A6
:1012E0000155C4E9045508222560A561294604F189
:1012F0005C0000F02DF9C4E90D55C4E912552046F3
:10130000F8BD3D680DB12F46D1E74FF4D671304698
:1013100001F032FC044680B10423C0E900530C30D4
:101320002946A0604FF4D072254600F011F93C60C8
:101330002F46BCE7FFF73AFFB8E703483C6000F0F0
:1013400005FA0C233360DAE750030020F401002093
:10135000000000200100FFFF10B504460B4800F01C
:10136000EDF9236A2BB90A4B0A4AD3F838312262C5
:1013700023B1BDE81040054800F0E8B9FFF716FFBB
:10138000BDE81040014800F0E1B900BF5003002063
:10139000F401002035110000014800F0CFB900BF72
:1013A00050030020014800F0D1B900BF50030020D5
:1013B00008B5054800F0C2F9BDE80840034A0449F1
:1013C000002000F019B800BF5003002000000020EA
:1013D0007511000008B5054A0549002000F00CF819
:1013E000BDE80840034800F0B1B900BF000000208C
:1013F00091110000500300202DE9F843074688466C
:1014000016464FF00009D6E90154013D10D4A389D6
:10141000012B08D9B4F90E3001332146384602D0E9
:10142000C04749EA0009013D6B1C04F16804EED194
:101430003668002EE7D14846BDE8F8830CB410B5F5
:101440009CB01EAB029106916FF000410491079190
:10145000084953F8042B0591002402A901931B9419
:1014600003F016FC029B1C701CB0BDE8104002B0DB
:10147000704700BF0802FFFF0EB430B59CB06FF09C
:1014800000411FAB049107910A4953F8042B0290C5
:1014900000240690084D0868019302A905951B9445
:1014A00003F0F6FB029B1C701CB0BDE8304003B09B
:1014B000704700BF0C0000200802FFFF10B50C466B
:1014C000B1F90E1000F0C8F8002803DB636D034487
:1014D000636510BDA38923F48053A38110BD00BFB1
:1014E000002070472DE9F0410C46B1F90C101F4661
:1014F000CB05054616460BD421F48051A1813B460D
:10150000B4F90E1032462846BDE8F04100F0BAB8F2
:10151000B4F90E100223002200F088F8B4F90C1080
:10152000EAE700BF10B50C46B1F90E1000F07EF8E6
:10153000B4F90C30421C0EBF23F4805343F48053A3
:101540006065A38110BD00BFB1F90E1000F05CB85A
:10155000830730B547D0541E002A3ED0CAB2034696
:1015600001E0013C39D303F8012B9D07F9D1032C8D
:101570002CD9CDB205EB05250F2C05EB054535D94A
:10158000A4F1100222F00F0C03F1100EE6444FEA12
:10159000121C1A46C2E90055C2E9025510327245C2
:1015A000F8D10CF1010214F00C0F03EB021204F05D
:1015B0000F0C13D0ACF1040323F0030304331344E2
:1015C00042F8045B9342FBD10CF003042CB1C9B286
:1015D0001C4403F8011BA342FBD130BD64461346F3
:1015E000002CF4D1F9E703461446C0E71A46A44696
:1015F000E0E700BFF030704700487047500100201E
:10160000004870475001002038B5074D00220446BD
:1016100008462A6006F0D2FE431C00D038BD2B6875
:10162000002BFBD0236038BD3003002038B50C46BA
:10163000084D8446114620461A4600232B60644616
:1016400006F0E4FE431C00D038BD2B68002BFBD015
:10165000236038BD3003002038B50C46084D844661
:10166000114620461A4600232B60644606F032F9E4
:10167000431C00D038BD2B68002BFBD0236038BD45
:101680003003002038B50C46084D844611462046EC
:101690001A4600232B60644606F004F9431C00D070
:1016A00038BD2B68002BFBD0236038BD30030020F1
:1016B00070B50F4B0F4DAB42A3EB050607D0B6102C
:1016C000002455F8043B01349847A642F9D806F0A7
:1016D000B5FE094D094B5E1BAB424FEAA60606D08C
:1016E000002455F8043B01349847A642F9D870BD50
:1016F000D0010020D0010020D0010020D401002022
:1017000038B5074D074C2C1BA41005D0013C55F8EB
:10171000043D9847002CF9D1BDE8384006F094BE4E
:10172000D8010020D4010020704700BF704700BFDF
:10173000704700BF704700BF704700BF704700BFD1
:101740000120704701207047704700BF704700BFFD
:1017500001F0FF01102A2BDB10F0070F08D010F862
:10176000013B013A8B422DD010F0070F42B3F6D166
:10177000F0B441EA012141EA014122F007047FF07F
:1017800000070023F0E80256083C85EA010586EAD6
:10179000010685FA47F5A3FA87F586FA47F6A5FA12
:1017A00087F68EB9EED1F0BC01F0FF0102F007021E
:1017B00032B110F8013B013A83EA010313B1F8D1C9
:1017C0000020704701387047002D06BF35460338AA
:1017D000073815F0010F07D1013015F4807F02BFE3
:1017E000013015F4C03F0130F0BC0138704700BF34
:1017F00000000000000000000000000000000000E9
:1018000030B490F800F020F007016FF0000C10F0F9
:10181000070491F820F040F048804FF000046FF08A
:101820000700D1E9002391F840F000F1080082FAA6
:101830004CF2A4FA8CF283FA4CF3A2FA8CF34BBB71
:10184000D1E9022382FA4CF200F10800A4FA8CF2EA
:1018500083FA4CF3A2FA8CF3E3B9D1E9042382FAB8
:101860004CF200F10800A4FA8CF283FA4CF3A2FACD
:101870008CF37BB9D1E9062301F1200182FA4CF205
:1018800000F10800A4FA8CF283FA4CF3A2FA8CF36C
:10189000002BC6D0002A04BF04301A4612BAB2FA8E
:1018A00082F200EBD20030BC7047D1E9002304F093
:1018B0000305C4F100004FEAC50514F0040F91F8C8
:1018C00040F00CFA05F562EA05021CBF63EA050365
:1018D00062464FF00004AAE79FED010A704700BF7F
:1018E0000000C07F2DE9F04DDFF8B0A00746DAF820
:1018F00000001E4688469346FFF720FF234B1D68D5
:1019000035B36C681F2C3ADCB7B1D5F8880040B30A
:10191000D0F8003140F824B00122A2401343C0F8AF
:10192000003100EB8403022FC3F8806004D1D0F8AB
:1019300004311343C0F80431631C0234DAF80000A8
:101940006B6045F82480FFF701FF0020BDE8F08DB3
:101950000F49104A1A6011B10B68C2F888300D4D5A
:10196000CFE70D4B5BB14FF4847001F0D1F830B18B
:101970000023C0E940336C68C5F88800CAE7DAF88C
:101980000000FFF7E3FE4FF0FF30DFE7E003002049
:101990000000000054030020112B00005C00002018
:1019A0002DE9F04F324ADFF8CC9083B0034610683F
:1019B00001938846FFF7C2FED9F80060002E32D0AE
:1019C0007568D6F888706C1E2DD4013506EB850538
:1019D00007F1800BB8F1000F2CD173682A68013B26
:1019E000A34216BF002374602B60BAB1D6F804A0DE
:1019F0008FB3D7F800110123A3400B422BD0D7F8A7
:101A0000040157F8241003422FD1019890477368BE
:101A1000D9F80020534524D1B24222D1013C631CA5
:101A2000A5F10405D6D1124B186803B0BDE8F04FFC
:101A3000FFF78CBE57B15BF824304345CDD0013C55
:101A4000621CA5F10405EED0002FF4D1013CEAD3CD
:101A5000013CFBD2E7E790477368D9F80020534573
:101A6000DAD0002ADFD01646AAE708469047CEE72C
:101A70005C000020E00300202DE9F04F03690C69B1
:101A8000A34283B0C0F28A80013C01F1140500F149
:101A9000140855F8243058F8242001339A428E4611
:101AA00081464FEA840105EB840708EB840AB2FB08
:101AB000F3F63AD3CDE900150022AC464046134672
:101AC0005CF8041B05681FFA81FB06FB0B22090C5E
:101AD0004FEA124B06FB01BB92B2A9B2891A194414
:101AE0001FFA8BF3C3EB214303EB154389B241EAA1
:101AF0000341674540F8041B4FEA1B424FEA23436A
:101B0000DED2DDE9001558F8013073B9AAF1040AF4
:101B1000D04504D307E0D04504F1FF3403D25AF88E
:101B20000439002BF7D0C9F810407146484601F03F
:101B3000BDFB00282EDB4146002255F8040BD1F8EE
:101B400000C01FFA80FE1FFA8CF3A3EB0E031344B0
:101B5000020CC2EB234202EB1C429BB243EA02435B
:101B6000AF4241F8043B4FEA2242E6D258F8242023
:101B700008EB84036AB9043B434504D807E0984561
:101B800004F1FF3403D253F80429002AF7D0C9F82E
:101B900010400136304603B0BDE8F08F002003B09E
:101BA000BDE8F08F2DE9F04FC5699DB08DED060BB6
:101BB000269C049057EC106B02910B920993002D18
:101BC00000F0B183296851B16A684A6001239340EB
:101BD0008B6001F09DF8049BDB6900221A60B7F16D
:101BE0000009B4BF012300232360774BBCBF29F059
:101BF0000049CDF81C9033EA090300F0AC809DED5C
:101C0000067B002251EC170B00238DED007B06F0C4
:101C10009BFA804668B1099A01231360279B13B190
:101C2000279A6A4B13606A4B059305981DB0BDE86F
:101C3000F08F9DED000B04981AAA1BA901F0A4FCDB
:101C40005FEA1955824640F09C80DDE91A854544DB
:101C500005F23243202B40F39B83C3F1400309FA82
:101C600003F905F2124326FA03F349EA030005F0EB
:101C700089FF0123013DA1F1F8711293554B002218
:101C800005F042FE4AA3D3E9002305F0F5FF4AA37D
:101C9000D3E9002305F03AFE064628460F4605F034
:101CA00081FF47A3D3E9002305F0E6FF02460B4678
:101CB0003046394605F02AFE06460F4606F08CFAF5
:101CC00000220446089000233046394606F046FAC2
:101CD000002840F03683089CA8EB0508162C08F174
:101CE000FF3B00F214833C4B03EBC403D3E9002316
:101CF000DDE9000106F032FA002873D0631E089374
:101D0000BBF1000F4FF000031193C0F206830023D4
:101D10000C93089B002B6BDA089B0C9A0D93D21A3C
:101D20000C925A4200230893029B1092092B67D809
:101D3000052BC4BF043B0293029BA3F10203CCBF5B
:101D400000250125032B00F24986DFE813F07C040F
:101D5000790470045204099AC9F3130942F20F730B
:101D600059EA060913601CD1279B002B00F02D8631
:101D70001A4B05930833279A059813601DB0BDE8E8
:101D8000F08FDDE90012C2F31303084643F07F51E0
:101D9000CDF84880A5F2FF35DDF8688041F44011A8
:101DA0006CE7279B002B40F000840D4B05933CE72C
:101DB00061436F63A787D23FB3C8608B288AC63F51
:101DC000FB799F501344D33F0000F07F65840000EF
:101DD000648400000000F83F9087000098840000B1
:101DE000A4840000B8F1000F40F3AF8411900C9070
:101DF000089B0D939B4400231093029B092B97D9BA
:101E000000234FF0FF32CDE90A23012502930E95FE
:101E1000049BDB69002159600A9B1393049800F02E
:101E200037FF0590002800F0E285049B059ADB69E6
:101E30001A600A9B0E2B00F20D81002D00F00A8122
:101E40000D99002940F35184AE4B01F00F0203EBD2
:101E5000C203C805D3E900894FEA211540F1158472
:101E6000A94BDDE90001D3E9082306F02FF8CDE9FD
:101E7000140105F00F0503277DB1A34EE90708D52E
:101E800040464946D6E9002305F0F6FE0137804674
:101E900089466D1006F10806F0D142464B46DDE951
:101EA000140106F013F880468946119B43B1974B05
:101EB00000224046494606F051F9002840F01785B7
:101EC000384605F06FFE42464B4605F0D5FE904B76
:101ED000002205F01BFDA1F15073CDE9140115930B
:101EE0000A9B002B00F09D800D9B19930A9B189371
:101EF0004946404606F070F9189A824B03EBC2033C
:101F000013ED027B05468DED167B05F04BFE0B466F
:101F100002464946404605F0F7FC059F0E9B3035CA
:101F20007E1CECB2804689463546002B00F0728458
:101F3000DDE916237749002005F0C8FFDDE9142309
:101F400005F0E2FC3C7042464B4604460D4606F066
:101F500023F9002840F0BF84CDF858B0CDF850A048
:101F6000AB460027189DA2462AE00137AF4280F217
:101F70000685694B50465946002205F07DFE664BAA
:101F8000002282468B464046494605F075FE89464A
:101F9000804606F021F9044605F004FE02460B4691
:101FA0004046494605F0B0FC303406F8014B524635
:101FB0005B468046894606F0D1F8002840F0DC8474
:101FC00042464B465149002005F09EFC52465B4676
:101FD00006F0C4F80028C8D0199BDDF850A0059A77
:101FE000374603F1010802E0974200F0A6843E461E
:101FF00017F8013D392BF7D00133DBB23B70454672
:1020000074E1384605F0CEFD42464B4605F034FEFD
:102010003F4B002205F07AFCA1F15073CDE9140189
:1020200015933E4B00224046494605F06DFCDDE924
:10203000144522462B4606460F4606F0ADF800280A
:1020400040F08A8430463946224605F1004306F0C6
:1020500085F828BB1B9B002BC0F292800D9A0E2A9C
:1020600000F38E80274B0D9A03EBC20393ED007BA8
:102070000B9B002B8DED027B19DA0A9B002B16DCE3
:102080000ED1264B0022DDE9020105F0F5FD0246E6
:102090000B46DDE9000106F06BF8002800F05C84D7
:1020A0000023059E00931F460B9BDD4344E2059BE6
:1020B0005D1CDDE90278DDE900013A46434605F0A2
:1020C00005FF06F089F8064605F06CFD3A464346E2
:1020D00005F0D2FD02460B46DDE9000105F014FCD7
:1020E000059A06F1300313700A9B012B2F4600F06E
:1020F00037830125CDF800A0A846DDE902AB99465B
:102100002CE000BF90870000808800000000F03FB6
:1021100000001C400000E03F00002440000014408C
:1021200052465B462046294605F0D0FE06F054F89C
:10213000064605F037FD52465B4605F09DFD08F169
:1021400001080B4602462946204605F0DDFB06F154
:102150003003C84507F8013B00F000838F4B002295
:1021600005F08AFD0022002304460D4605F0ECFF31
:102170000028D5D00D9DDDF800A001353E46B5E024
:102180000E9A002A40F0F1800023109E0C9D0E93C1
:102190001F4665B1BBF1000F09DD5D450C9A2B466A
:1021A000A8BF5B46D21A0C92ED1AABEB030B109B47
:1021B00053B10E9B13B1002E40F00B835146109A81
:1021C000049800F08FFF82460498012100F0BEFEC3
:1021D000089B0090002B40F0D381029B012B40F321
:1021E000E9810120584410F01F0000F0B780C0F1D1
:1021F0002003042B40F3F8810C9BC0F11C00034426
:102200000C93054483440C9B002B05DD5146049838
:102210001A4600F0D7FF8246BBF1000F05DD00999A
:1022200004985A4600F0CEFF0090119B002B40F01E
:102230008C810A9B002B40F364810E9B002B40F0A5
:10224000BC800D9D0135DDF81480009CDDF828B0C0
:10225000DDF81090012607E0514600230A22484687
:1022600000F07AFD0136824621465046FFF704FC15
:10227000B34500F1300008F8010BEDDC0A9B002BA0
:10228000C8BF1E46059BD8BF0126814603EB060B3F
:10229000002451460122049800F094FF00998246E0
:1022A00001F004F8002840F30382059A02E0934508
:1022B00000F016825E460BF1FF3B16F8013C392B0D
:1022C000F5D001338BF80030DDF8108000994046DE
:1022D00000F01EFD57B12CB1BC4203D02146404650
:1022E00000F016FD0498394600F012FD049851469E
:1022F00000F00EFD00233370099B1D60279B002B0F
:102300003FF493AC05981E601DB0BDE8F08F01232B
:10231000BBF1000F1193BFF6FAACC8F101030C93A7
:102320004FF0000BF5E4102000F0F2FB049B024696
:10233000D861002800F04D83C0E90055C0E902557E
:102340004DE4204605F02EFC32463B4605F0FCFEEF
:1023500000287FF4C0AC631E0893BCE41C230C9AD5
:102360001A440C921D449B444DE7029A012A40F303
:10237000AA810A9B109A5E1EB242C0F26781002BAE
:10238000A2EB060680F2EC820C9B0A9A9D1A6AE187
:10239000C3F1200306FA03F069E400BF0000244003
:1023A0003946002304980A2200F0D6FC139B002B28
:1023B000074640F3FE820D960A93002D05DD39464F
:1023C00004982A4600F0FEFE0746089B002B40F0CA
:1023D000E481B846059E0A9C731E1C44069B03F0CC
:1023E0000103CDE90B43049C00995046FFF744FBE1
:1023F00039468346504600F059FF0099054642464B
:10240000204600F075FFC3680BF130090146ABBBF5
:102410000A90504600F04AFF0A990890204600F0C2
:1024200077FC089A002A54D1029B1BB90C9B002B05
:1024300000F0AB82002D3FDB0B9BB346B3420BF8A1
:10244000019B00F0C181514600230A22204600F082
:1024500083FC4745824639464FF000034FF00A029D
:10246000204630D000F078FC4146074600230A227F
:10247000204600F071FC5E468046B5E7049800F007
:1024800047FC002D06DB069B03F00102029B1D4367
:102490002A4329D151460122049800F093FE009965
:1024A000824600F003FF002840F3F680B9F1390FAF
:1024B00000F048820BF131090D9D06F8019B3C4666
:1024C0000135474600E700F047FC5E460746804678
:1024D0008AE7002DC0F29D82029B1D430C9B1D4389
:1024E00000F09782002AA7DDB9F1390F00F02A82A7
:1024F0000D9D09F101033C4606F8013B01354746B5
:10250000E2E6029B022B7FF798AE0A9B002B40F07D
:10251000238100990498052200F01EFC01460090DA
:10252000504600F0C3FE002840F31681059E0D9D25
:10253000312306F8013B01350099049800F0E8FBCF
:102540000135002F7FF4CEAED0E60099504600F062
:10255000ADFE0028BFF66DAE5146002304980D9CD9
:102560000A2200F0F9FB0E9B661E8246002B7FF4C8
:1025700017AF139B002B40F30F820D9D0A9362E669
:1025800001461A46049800F0ADFD029B0090012B15
:102590006FDD00230893009A136902EB8303186927
:1025A00000F082FCC0F120001CE6964B059303333B
:1025B000FFF7E1BB069B002B7FF413AEDDE90612AB
:1025C000C2F31303002B7FF40CAE8F4B13402BB1DF
:1025D0000C9B01330C930BF1010B0123089A089318
:1025E000002A3FF4FEADD6E73FF40DAEC0F13C0348
:1025F000B5E601230E930B9B0D9A134413930133FD
:10260000012B1F460A93B8BF0127049B172FDE69D1
:1026100040F2FB81012204235B0003F11400B84265
:10262000114602F10102F7D97160FFF7F7BB0123F0
:102630000E930B9B002B36DD1F4613930A93E4E7A2
:1026400000230E93D7E700230E93F2E7109B089A1E
:102650001096F31A1A4408920A9B0C9A15461A44CB
:102660009B440C9200260498012100F06FFC074661
:102670008FE5069B002B8CD1DDE90601C1F3130326
:102680000A46002BA1D0089085E79DED007B02272C
:102690008DED147BFFF7F0BB7FF40EAF19F0010F47
:1026A0007FF404AF08E70123CDE90A33FFF7B0BB9D
:1026B00003D119F0010F7FF4F8AD5E461BF8013D20
:1026C000302BFAD000E6129A002A00F0078103F2BC
:1026D00033430C9A109E15461A449B440C92C2E751
:1026E000059A312301351370EEE500F0FB800D9A59
:1026F000464B554205F00F0203EBC203D3E900231A
:10270000DDE9000105F0B8FA2D11CDE9140100F062
:1027100057813F4E0023022780468946EA0709D5A4
:10272000D6E900234046494605F0A6FA013780461F
:10273000894601236D1006F10806EFD1002B7FF4C6
:10274000B4ABDDE91489FFF7B0BBC8F101038346E0
:102750000C931190FFF74CBB059EA5E4DDF800A09B
:1027600002460B4605F0D2F80D9D02460B46CDE918
:1027700000230135DDE90223A84605F00DFD40B92F
:10278000DDE90223DDE9000105F0DEFC18B1F30705
:1027900001D5059A2BE43E46A8E57968049800F037
:1027A00077FA0546002800F029813B6902339A0038
:1027B00007F10C010C3002F037FD04982946012284
:1027C00000F000FD804605E60D9D3C46013547467C
:1027D0005FE5049C39463246204600F083FC5246B1
:1027E00001460746204600F0C7FB5146804620467A
:1027F00000F08EFA109B9B1BC24610933FF4E4AC92
:10280000DCE400BFA48400000000F07F908700009B
:1028100080880000DDE91623DDE9140105F02CFABB
:10282000059B1C70189B012BCDE90E0100F0BF80A9
:10283000189F059B12961F447E4B00224046494636
:1028400005F01AFA0D46044605F0C6FC814605F06F
:10285000A9F909F1300902460B462046294605F040
:1028600053F806F8019BB74280468946E4D1129D91
:10287000714B0022DDE90E0105F048F802460B46D7
:102880004046494605F088FC00286FD1DDE90E235B
:102890006949002005F038F802460B464046494693
:1028A00005F05CFC88B91B9B002BFFF66DAC0D9B03
:1028B0000E2B3FF769AC614B0D9A03EBC20393ED0E
:1028C000007B8DED027BFFF7F4BB3E46013F16F81F
:1028D000013C302BF9D0199D013507E51A9BC3F156
:1028E0003603F6E6DDE900890227FFF7DEBA0A9B28
:1028F000002B3FF486AB139C002C7FF7ABAB0D9BFA
:10290000013B00224046494619934A4B05F0B4F971
:1029100080468946781C05F045F942464B4605F04D
:10292000ABF9474B002204F0F1FFA1F15073CDE960
:10293000140118941593FFF7DBBA08F1010831234D
:10294000FFF75CBB0D9D059AB34639233C460BF857
:10295000013B01354746ADE4002300931F46E5E502
:102960000C9A15461A449B440C927CE6199B059AD6
:1029700003F10108FFF73BBBDDF850A0ABE7DDF842
:1029800058B0DDF850A0FFF765BBB9F1390FD9D0C9
:10299000002D3FF78FAD8FE5029B022B03DC139BCD
:1029A0000D9D0A934FE4139B0A930D96ADE53746B0
:1029B0005EE7029B022BF6DC139B0D960A93FCE468
:1029C000DDE914890227FFF770BA1E4B0593FFF764
:1029D0002CB91D4B1D48EF2102F0CAFC0498C369B5
:1029E00000255D60294600F053F90590A8B9184B01
:1029F0001648002240F2AF1102F0BAFC144B134803
:102A00002A4640F2EF2102F0B3FC00217160FFF78B
:102A100005BA002A3FF73EAD4EE5049B059ADB69F7
:102A20000B951A604FF0FF33012213930E920A9315
:102A3000FFF710BB000024400000E03F908700003B
:102A400000001C4098840000A8840000C08400009E
:102A5000FC840000002950D038B551F8043C0C1F0C
:102A6000002BB8BFE418054600F006F9274A1368A2
:102A70002BB1A3420CD92168601883422CD063602B
:102A800028461460BDE8384000F0FCB8A3420FD8D7
:102A90001A465B68002BF9D111685018844217D090
:102AA0002CD3636054602846BDE8384000F0EAB893
:102AB00011685018A04214D020D8216860188342B1
:102AC000EFD118685B680844C4E900035460EAE782
:102AD00023680B441360E6E718685B6808442060CD
:102AE000CDE720680144501883421160DBD1D3E95F
:102AF00000040144C2E90014D5E770470C232B60A1
:102B00002846BDE8384000F0BDB800BFE80300200B
:102B1000024B0146186800F02FB800BF0C000020DF
:102B2000024B01461868FFF795BF00BF0C0000205C
:102B300070B5104E336805460C46B3B121462846A1
:102B400002F05AFB431C0CD0C41C24F00304A04226
:102B500005D0211A284602F04FFB013001D0204653
:102B600070BD4FF0FF34204670BD194602F044FBA3
:102B70003060E3E7E40300202DE9F843CD1C25F0A5
:102B8000030508350C2D38BF0C25002D064618DB33
:102B9000A94216D8DFF8DC8000F06EF8D8F80420DF
:102BA000A2B1144603E0636822467BB11C46236849
:102BB0005B1BF8D40B2B1FD89442636854D053602E
:102BC0000CE00C2333600020BDE8F8832946304632
:102BD000FFF7AEFF431C044619D00560304600F0F5
:102BE00051F804F10B00231D20F00700C21A1CBF8E
:102BF0001B1AA350BDE8F88361199442256014BFE5
:102C00005160C8F80410635163684B60E6E7D8F878
:102C100004701FB33C467F68002FFBD12368394600
:102C2000304604EB030902F0E7FA814516D1236828
:102C3000ED1A29463046FFF77BFF01300ED023689E
:102C4000D8F804202B442360536883B1A34203D0F7
:102C50001A465B689C42FBD10023B0E70C2333602B
:102C6000304600F00FF8AEE7C8F80430B6E7C8F811
:102C70000470B3E7E40300200148FEF75FBD00BF26
:102C8000440300200148FEF761BD00BF440300205B
:102C900070B5C66905460C465EB1F368A3B153F83A
:102CA0002400E8B1026843F824200023C0E903337C
:102CB00070BD1020FFF72CFF0646E861E8B1002345
:102CC000C0E90033C0E9023321220421284602F082
:102CD00075FBEB69F060DB68002BE0D1002070BD74
:102CE000012101FA04F6721D9200284602F066FBEB
:102CF0000028F3D0C0E90146D7E7034B034832462A
:102D00006B2102F035FB00BFA88400001085000095
:102D100070B5C66905460C464EB13CB1EB696268B8
:102D2000DB6853F82210216043F8224070BD102068
:102D3000FFF7EEFE0246E86120B1C0E90066C0E997
:102D40000266EAE7024B03488F2102F011FB00BF45
:102D5000A8840000108500002DE9F0410D690746A8
:102D60000E461C4601F1140E0020DEF800108BB256
:102D700002FB03434FEA134C090C02FB01CC013068
:102D80009BB203EB0C4385424EF8043B4FEA1C44D4
:102D9000EBDC3CB1B368AB4207DD06EB85030135E4
:102DA0005C6135613046BDE8F081716838460131BB
:102DB000FFF76EFF804690B13269023206F10C01D6
:102DC00092000C3002F030FA314638464646FFF7A2
:102DD0009FFF06EB850301355C613561E2E7034B3C
:102DE00003484246BA2102F0C3FA00BFFC84000047
:102DF000108500002DE9F8431746284A1E4608337F
:102E00000C46092E82FB03124FEAE3730546C3EB1F
:102E100062033ADD4FF0010C00214FEA4C0C634590
:102E200001F10101F9DC2846FFF732FF014670B3DA
:102E3000089B4361092F4FF00103036112DC0A3440
:102E40000927BE420BDDF61B264414F8013B0A227B
:102E5000303B2846FFF780FFB4420146F5D10846D3
:102E6000BDE8F88304F1090804EB0709444614F8A7
:102E7000013B0A22303B2846FFF76EFF4C450146D6
:102E8000F5D1A7F108044444DBE70021CBE70A466B
:102E9000034B0448D32102F06BFA00BF398EE338AC
:102EA000FC84000010850000B0F5803F034636BF6B
:102EB000030400201020B3F1807F3CBF1B020830C8
:102EC000B3F1805F3CBF1B010430B3F1804F03D3EB
:102ED000002B06DB013070479B0003D45B0003D45A
:102EE000202070470230704703307047036813F0AA
:102EF0000702014607D0DA071FD4980721D55B08DF
:102F00000B600120704798B2A0B11046DAB20AB93E
:102F100008301B0A1A0704BF1B0904309A0704BFB4
:102F20009B080230DA0703D45B0800F1010006D0E9
:102F30000B6070471B0C1020E8E700207047202032
:102F400070479B080B600220704700BF10B50C460D
:102F50000121FFF79DFE024618B10123C0E90434A8
:102F600010BD034B034840F2451102F001FA00BFC7
:102F7000FC840000108500002DE9F04FD1F810808E
:102F80001569A84585B00E46924605DB2A4653468C
:102F900045468A4690461E46DAF80830DAF80410AC
:102FA00005EB0804A342B8BF0131FFF771FE844668
:102FB000002800F08B8000F1140707EB840E7745A2
:102FC00005D23B46002243F8042B9E45FBD814361D
:102FD00006EB88080AF11409464509EB850566D217
:102FE000A5EB0A03153B23F003030AF1150A04338A
:102FF00055452CBF9B464FF0040BCDF808E00394D9
:10300000AE46E24605E0090C2AD1B04507F10407B7
:103010004AD956F8041B8DB2002DF4D0CC463C465C
:10302000002301965CF8040B216886B28AB2000C7A
:1030300005FB0622090C1A4405FB001101EB1241A5
:1030400092B242EA0142E64544F8042B4FEA1143AA
:10305000E8D8019E47F80B3056F8041C090CD4D070
:103060003B68002248461D463C469446028801FBC8
:1030700002C202EB15429BB243EA024344F8043B0E
:1030800050F8043B25684FEA134CABB201FB0C33FC
:1030900003EB124370454FEA134CE7D3B04547F8B2
:1030A0000B3007F10407B4D8DDE902E4D446002C64
:1030B00002DC05E0013C03D05EF8043D002BF9D0B2
:1030C0006046CCF8104005B0BDE8F08F034B0448D3
:1030D00062464FF4B17102F04BF900BFFC8400006E
:1030E000108500002DE9F04312F0030383B014466D
:1030F00007462DD10E46A4101CD0FA698AB39568F4
:10310000002D39D0E3074FF0000906D4641011D028
:10311000286898B10546E307F8D531462A4638466F
:10312000FFF72AFF314680463846FFF7F1FD64106D
:103130004646EDD1304603B0BDE8F0832A46294625
:103140003846FFF719FF2860C0F800900546E2E70F
:10315000013B184A52F823200023FFF7FDFD0646E5
:10316000C9E71020FFF7D4FC0246F861E0B1002364
:10317000C0E90033C0E90233012138460192FFF76C
:1031800087FD019A054640B1012340F27121C0E953
:103190000431002390600360B4E7074B07482A46D8
:1031A00040F2451102F0E4F8054B044840F2B31137
:1031B00002F0DEF880870000FC840000108500002B
:1031C000A88400002DE9F0470D4691462B69496817
:1031D00003EB6218AB6808F101049C4207464FEA12
:1031E000621A04DD5B009C4201F10101FADC384601
:1031F000FFF74EFD064600284DD0BAF1000F00F152
:1032000014000EDD0AF105024FEA820C034606EBBC
:103210008202002143F8041B9342FBD1ACF114035A
:103220001844296905F1140319F01F0903EB810102
:1032300029D0C9F1200E84464FF0000A1A6802FA1C
:1032400009F242EA0A024CF8042B53F8042B994283
:1032500022FA0EFAF2D84B1B153B23F0030304337A
:1032600005F11502914238BF042340F803A0BAF1DA
:10327000000F00D14446384634612946FFF748FD27
:103280003046BDE8F087043853F8042B40F8042F8B
:103290009942F9D8EEE7034B034832464FF4EF71F9
:1032A00002F066F8FC840000108500000B6984467B
:1032B0000069C01A16D10CF1140C14310CEB830206
:1032C00010B401EB830301E0944508D252F8044D99
:1032D00053F8041D8C42F7D005D24FF0FF305DF853
:1032E000044B7047704701205DF8044B704700BFE6
:1032F0002DE9F04F15460A692B69D21A002A83B0CE
:10330000884640F0878001F1140605F1140101EBB5
:10331000830106EB830301E09E427ED253F8044D05
:1033200051F8042D9442F7D075D32B46002445461E
:1033300098466968FFF7ACFC8146002800F0898058
:103340002E69C460D8F8100005F1140B08F1140EB2
:1033500009F1140A05F110020EEB80000BEB860157
:1033600057464FF0000CCDF804B05EF8044B52F80D
:10337000045F1FFA84FBABB2A3EB0B03240C634482
:10338000C4EB154404EB23449BB243EA0443704569
:1033900047F8043B4FEA244CE7D8A0EB080208F1B9
:1033A00015084045A2F1150234BF00200120920803
:1033B0000028DDF804B002F101044FEA840408BFDC
:1033C00004240BEB0405A942544433D9274628466C
:1033D00050F8043B1CFA83FE1A0C634402EB2E42A5
:1033E0009BB243EA0243814247F8043B4FEA224C36
:1033F000EED80139491B21F003010C4423B954F8DC
:10340000043D013E002BFAD04846C9F8106003B0D5
:10341000BDE8F08F89DA01248BE70021FFF738FC43
:10342000814678B101220023C0E90423484603B055
:10343000BDE8F08F00284FEA820208BF00220AEBA5
:103440000204DBE7064B07484A4640F2372101F009
:103450008FFF034B03484A4640F2452101F088FFA5
:10346000FC8400001085000082B08DED000B164B2F
:10347000019A1340A3F15073002B06DD0022194678
:10348000104641EC100B02B070475B42B3F1A07FD5
:103490004FEA235209DA4FF4002313410022194660
:1034A000104641EC100B02B07047A2F114031E2B22
:1034B000DABF4FF00042DA400122002319461046DD
:1034C00041EC100B02B070470000F07FF8B50469C2
:1034D00000F1140606EB8404271F54F8045C284608
:1034E000FFF7E2FCC0F120030A280B6033DDBE4287
:1034F000A0F10B0119D254F8080C21B3C1F1200737
:103500008D4020FA07F215438840A4F1080145F0E8
:103510007F538E4243F4401319D254F80C1CF940E7
:103520000843024643EC102BF8BD0B280AD005FADD
:1035300001F141F07F53002043F44013024643EC75
:10354000102BF8BD002045F07F5343F44013024692
:1035500043EC102BF8BDC0F10B0C25FA0CF1BE4268
:1035600041F07F5338BF54F8081C00F1150034BFF8
:1035700021FA0CF1002105FA00F0084343F440134E
:10358000024643EC102BF8BD2DE9F0430E4683B004
:10359000012159EC108B1546FFF77AFB04460028F1
:1035A00046D0C9F30A57C9F313030FB143F480138C
:1035B0000193B8F1000313D101A8FFF797FC019B19
:1035C00063610122203022610FB3A7F23347074421
:1035D000C0F1350037602860204603B0BDE8F083B5
:1035E00068460093FFF782FC019BF8B10099C0F197
:1035F000200203FA02F2C3400A430193002B6261E6
:103600000CBF01220222A3612261002FDDD104EB55
:103610008203A0F2324030601869FFF745FCC0EB2E
:1036200042102860204603B0BDE8F083009AE5E729
:10363000034B0448224640F20F3101F099FE00BFCF
:10364000FC840000108500002DE9F04383B088461B
:1036500069468146FFF73AFF01A9404655EC104BF9
:10366000FFF734FFD8F81030D9F81020D21ADDE96E
:1036700000315B1A03EB4213002B59EC108B0DDD6C
:1036800005EB03573D4642464B462046294604F08B
:103690001DFC41EC100B03B0BDE8F083C3EB03331A
:1036A00009EB03518946EEE7172870B506460CDD95
:1036B0000A490B4D0020002422462B4604F0DCFA78
:1036C000013EF9D141EC100B70BD064B03EBC0037A
:1036D000D3E9040141EC100B70BD00BF0000F03FC6
:1036E00000002440808700000139491101F1010CDC
:1036F000116902F1140303EB81018B4200EB8C0C86
:1037000016D210B5A0F1040E53F8044B4EF8044F36
:103710009942F9D88B1A153B23F00303043318445C
:10372000844504D9002340F8043B8445FBD810BDF0
:10373000844505D9002340F8043B8445FBD87047F5
:10374000704700BF03694A11934200F1140009DA7F
:1037500000EB830302E053F8042DAAB98342FAD8A0
:103760000020704700EB8203F8DD11F01F01F5D057
:1037700010B450F8224024FA01F28A40944209D051
:1037800001205DF8044B70470120704753F8042D69
:10379000002AF5D18342F9D800205DF8044B704728
:1037A0002DE9F04F2DED028B9DB088460021079248
:1037B000189100220021CDE9041283464146179159
:1037C0000F4611F8012B2D2A5ED801A050F822F0E7
:1037D000A3390000893800008938000089380000CA
:1037E00089380000893800008938000089380000D5
:1037F00089380000BF370000BF370000BF37000026
:10380000BF370000BF37000089380000893800004A
:1038100089380000893800008938000089380000A4
:103820008938000089380000893800008938000094
:103830008938000089380000893800008938000084
:103840008938000089380000893800008938000074
:10385000BF3700008938000089380000893800002F
:103860008938000089380000893800008938000054
:103870008938000089380000893800004B3F00007B
:10388000893800005F3F000000210891302A00F0D5
:103890009780002309932F2A144640F202854FF0A7
:1038A000000938464E464D4613E00130082D17906A
:1038B000C8BF09EB89090478C6BF02EB4902A2F12F
:1038C0003009A3F130062F2C05F10105224640F303
:1038D000B88006EB8603392C02EB4303E5DDB049E3
:1038E000012201F043FC00287BD1179A13460132D4
:1038F00017925C78002D40F0A285302C40F09C851A
:1039000013461846013317931C78302CF9D0C2F1B6
:1039100001031844A4F13103082B36D8179F431C28
:10392000A4F1300E0D9301253C464FF0000A06EB42
:1039300086060EEB46060020631C17936478A4F1FC
:103940003002092A00F2F182179C01309646002AC3
:10395000F2D00128D8BF05F1010C40F3FB8600EB43
:10396000050C0CF1FF3103E05E00A94200F0F28685
:10397000082D06EB860305F10105F5DD102DDCBFF2
:1039800009EB89094FEA4909EFE7652C40F0EA8223
:1039900000230122CDE90C239A46099B034340F002
:1039A000D282079B9FED7C8B0BB1C3F80080B0EEF9
:1039B000480AF0EE680A1DB0BDEC028BBDE8F08F3E
:1039C0007A7802F0DF02582A00F02E840137179728
:1039D0003A78302AFAD0002A00F08F820123099326
:1039E00059E70020CDE90C00AA46652C36D0452CBD
:1039F00034D000230E93002D7CD1099B034340F06B
:103A00007C820C9B002BCCD1692C00F0778400F3D6
:103A10007084492C00F072844E2CC2D1614917A8E1
:103A200001F0F8FF0028BCD0179B1B78282B00F072
:103A300083855D4801F094FCB0EE408AF0EE608A28
:103A40005DE25749012201F091FB0028C9D1179B83
:103A50000D905A1C17925C78AA4670E7002D9CD0F6
:103A6000DDF85C8008F10103179398F801402B2CD6
:103A700000F066822D2C00F05B824FF0000CA4F168
:103A80003001092900F24C82302C179B0AD10133F6
:103A900017931C78302CFAD0A4F13102082AA8D848
:103AA000A4F130015A1C17925C782F2C40F30D843E
:103AB00096460E9308E0013217929EF801402F2C93
:103AC000A3F1300106DD964601EB8103392C04EBAE
:103AD0004303F0DD0E9BD21A082A40F3F68344F626
:103AE0001F630E93BCF1000F85D00E9B5B420E93BB
:103AF000002D82D0DDE90D23BAF1000F08BFAA46E0
:103B00009B1A102D30460C932C46A8BF102404F0AD
:103B100039F8092D02460B46CDE9042316DD234B67
:103B200003EBC40353E9122304F0A6F80246484607
:103B30009046894604F026F802460B464046494620
:103B400003F0E4FE0F2DCDE9040131DC0C9B002BCA
:103B500000F039830C9B40F36882162B40F3BC8342
:103B60000C9AC5F12503934222DB104CC5F10F05D9
:103B700004EBC501DDE90423D1E9000104F07CF880
:103B80000C9B5D1B04EBC504D4E9002304F074F81E
:103B900041EC180BB3E100BF000000000000000082
:103BA0004C8500005C850000E086000090870000E6
:103BB0000C9B2C1B1C44002C40F3DA8114F00F00EA
:103BC0000AD03B4901EBC001DDE90423D1E9000142
:103BD00004F052F8CDE9040134F00F034BD0B3F5F3
:103BE0009A7F00F3A083102BDFF8D8E04FEA23146C
:103BF00040F3E884DDE904234FF0000C0997F04618
:103C0000E146774614F0010F1046194607D0D8E96F
:103C1000002304F031F84FF0010C02460B4664100B
:103C2000012C09F1010908F10808EBD1BE46099FF2
:103C3000BCF1000F01D0CDE90423059BA3F154731F
:103C40000EEBC9010593DDE90423D1E9000104F07D
:103C500013F8184BCDE904010B400A4616498B4274
:103C600000F2618315498B4240F24484144C4FF0BA
:103C7000FF33CDE904340023099300962B465246C6
:103C800039465846FFF7B6F81290002800F04B83EB
:103C9000DDE90D329B1A0C9A002AA8BF00230D9370
:103CA0004FF0000922EAE2731393CA46E6E000BF30
:103CB000908700000000F07F0000A07C0000907C56
:103CC000FFFFEF7F80880000D21A1F2AA4EB0204B6
:103CD00000F33B82012303FA02F500231093099BB2
:103CE00026444444A0451E444346A8BF2346B3424D
:103CF000A8BF3346002B03DDE41AF61AA8EB03082D
:103D00000D9B002B00F3CA81002C00F3E0810C9B7B
:103D1000002B00F31082002E00F30282B8F1000F96
:103D200008DD514642465846FFF74CFA82460028C5
:103D300000F0FF8118993A465846FFF7D9FA8146B4
:103D4000002800F0F6810023C268C36051460E923D
:103D5000FFF7ACFA0028C0F20284059E00F07C83D5
:103D600051464846FFF770FC55EC104B00224FF0CF
:103D700080432046294604F0FBF9002800F07E81AC
:103D80000E9B002B40F0EE81049B002B40F07882CC
:103D9000C6F31303002B40F01982B14B00222046DA
:103DA000294604F0DBF9002840F04D83AD4B00229A
:103DB0002046294603F060FF0A460146CDE910126D
:103DC00002F100430A900B93DFF8A082A64B06EAAB
:103DD00008089845DDE90A4500F0CB81099B1BB333
:103DE000B8F1D46F20D89AA3D3E90023DDE91001FC
:103DF00004F0BEF9A0B1DDE9100104F015FA0128C4
:103E000038BF012003F0BEFE0E9BCDE91001002B50
:103E100040F08F8201F1004314901593DDE91445C1
:103E200005F1D663A3EB0805B0EE480AF0EE680A88
:103E3000FFF71AFB204653EC102B294603F01CFF1A
:103E400053EC182B03F062FDCDE904010C46099BED
:103E500023B9864B2340984500F0C18118995846F4
:103E6000FEF756FF39465846FEF752FF5146584670
:103E7000FEF74EFF49465846FEF74AFF129C584649
:103E80006168FEF705FF0746002800F052812269AD
:103E90000232920004F10C010C3001F0C5F99DEDE5
:103EA000048B1AAA19A95846B0EE480AF0EE680A1F
:103EB000FFF76AFB1890002800F012810121584694
:103EC000FFF744F88246002800F03381199B002B4D
:103ED000C0F221810D9A139E03EB0208099A1A9CE5
:103EE0009B1A2344624A013B9342C4F13604FFF615
:103EF000EBAE002310930125F1E69FED578B079A57
:103F00000AB1179B1360089B002B3FF450AD18EECD
:103F1000901A18EE102A01F1004343EC182B46E5E5
:103F20000023CDF85C800E9365E501230C935CE5DE
:103F30004FF0010C08F10203179398F802409EE538
:103F40004FF0000CF6E700258AE500220892791C64
:103F500017917A78002A3FF424AD0F4696E40122A7
:103F60000892F4E7452C3FF413AD01230C9344E58C
:103F70003FF481AE644214F00F020AD03D4B03EBD4
:103F8000C203DDE90401D3E9002303F09FFFCDE97B
:103F9000040124113FF46FAE1F2C40DC14F0100319
:103FA00018BF6A230993DDE90423DFF8CC804FF0C2
:103FB000000C14F0010F1046194607D0D8E9002371
:103FC00003F05AFE4FF0010C02460B46641008F154
:103FD0000808EED1BCF1000F01D0CDE90423099B04
:103FE000A3B1DDE90401C1F30A52C2F16B03002B56
:103FF0000ADD1F2B40F327830020342B049040F36D
:104000008E834FF05C7305936A230993DDE9040105
:104010000022002304F098F800283FF42EAE22235B
:104020009FED0D8BCBF8003069E71633FFF6C0AD7E
:10403000DDE90D329A1A0F4B03EBC203DDE90401EF
:10404000D3E9002303F042FF41EC180B57E700BF10
:104050000000C0FFFFFFDF41000000000000000083
:104060000000F03F0000E03F0000E07F0000F07F34
:1040700002FCFFFF90870000D0880000BE4B204666
:104080002946002203F0F8FD0E9BCDE91001002B1C
:1040900063D101F100430A900B9395E651461A460D
:1040A0005846FFF71FF88246002842D00146189A6A
:1040B0005846FEF761FF00283BD00E9018995846ED
:1040C000FEF726FE0E9B1893002C7FF720AE189962
:1040D00022465846FFF776F8189000287FF417AE6E
:1040E00005469FED978B2223CBF800302946584692
:1040F000FEF70EFE39465846FEF70AFE5146584670
:10410000FEF706FE12995846FEF702FE494658464B
:10411000FEF7FEFDF3E6139ADDF83480D61ADDE6ED
:10412000394632465846FFF74DF8074600287FF4D7
:10413000F5AD189DD5E73946139A5846FEF7D2FFDC
:10414000074600287FF4E7ADF3E78C4AD31A012233
:1041500002FA03F310931546C1E59DED107B8DED3A
:104160000A7B31E69FED787B8DED0A7B8DED107B30
:104170002AE6A6F154730593DDE9044545EC104B9E
:10418000FFF772F9DDE90A2351EC100B03F074FD1F
:1041900022462B4603F0BAFB794A7A4B0A409A42F0
:1041A000CDE9040179D918EE902A03F154739A42AB
:1041B00003D118EE103A0133BBD0734C4FF0FF33EC
:1041C000CDE904344AE69DED048B98E69FED607BD3
:1041D0008DED0A7B9FED5C7B8DED107BF4E5DDE9D9
:1041E00010562846314604F08FF803F017FD0246BA
:1041F0000B462846314603F087FB0E9D049EC4F310
:104200001304354302460B462543CDE90E2325D141
:1042100051A3D3E9002303F0A1FF00283FF41EAE11
:104220009DED048B189D61E70293089B019318ABE9
:104230000093564A19AB17A9584601F025F910F01A
:104240000F0504463FF459AE062D40F0A980013712
:1042500000239FED438B1797089350E642A3D3E9C1
:10426000002303F07BFF0028DAD1DDE90E0140A333
:10427000D3E9002303F090FF00283FF4EFADCFE730
:10428000049B012BA2D1002EA0D1189C22239FEDCC
:10429000348B2546CBF8003028E701F1547405949F
:1042A000D5E53B490122384600F060FF002800F0C8
:1042B000BA804FF000094E464846CDF834904D463E
:1042C000CDF83090CA46FFF792BB44F61F6399427F
:1042D000A8BF19460E9105E40C982E4901EBC001C8
:1042E000DDE90423D1E9000103F0C6FC41EC180B21
:1042F00005E66E2C3FF492ABFFF753BB264917A897
:1043000001F088FB00283FF44CAB179B2349013B8D
:1043100017A8179301F07EFB10B9179B0133179371
:104320009FED078BEBE522239FED058BCBF800304B
:10433000E5E59DED107B8DED147B6FE5AFF300801F
:10434000000000000000F07F000000000000F03FCF
:10435000000000000000F0BF9535A094FFFFCF3FA4
:1043600000000000000000009535A094FFFFDF3F33
:1043700035E5AF350000E03F0000E03FE2FBFFFF26
:104380000000F07FFFFF9F7CFFFFEF7FA888000009
:104390004C85000090870000508500005485000087
:1043A000189A3AB135211AA8FFF79EF9189958467C
:1043B000FEF7AEFC013D199B042D00F2DE81DFE823
:1043C00005F0032C291E03001A9A049203F23342CB
:1043D0001B9B23F4801343EA02530593E20502D5A5
:1043E00043F000430593B64A1A409DED048B002A22
:1043F0007FF485AD00F012FF222303607FE54FF0CC
:10440000FF326FF00043CDE90423E3057FF5DBAE17
:10441000059BE5E7AA4B0593F7E7DDE91A121B9B1D
:10442000CDE90412DAE7179A1346013217925C7845
:1044300006468146FFF761BA0020FFF76BBAAA462D
:104440000D90FFF77CBA9FED9A7B8DED0A7B9FED77
:104450009A7B8DED107BB7E40E9BDDF840C0994947
:10446000A846C6F31302002B49D08A4200F0F3801D
:10447000BCF1000F37D1049B1D4237D0B0EE480A83
:10448000F0EE680AFEF7F0FF099B51EC100B002BD1
:1044900000F04D81C6F30A53C3F16B03002B07DD17
:1044A0001C0504F17F53002203F5401303F0E4FBE5
:1044B00002460B4651EC180B03F028FA41EC180B9E
:1044C000814B51EC180B002203F0D6FB41EC180B8A
:1044D0007B4B18EE902A1340002B7FF4A3AE2223CF
:1044E000CBF800309EE61CEA060FC7D1099B002BD3
:1044F000E6D197E602F154730593FFF7BCBB002A9F
:1045000064D1DDE90401002840F09680099B002B6E
:1045100040F0F48021F00044240D2405A4F580141B
:104520006FEA14536FEA035305934FF0FF3304937C
:104530009DED048B189DD9E5644917A81AAA01F0CE
:1045400085FA05287FF475AA1B9B43F0FF4343F4CB
:10455000E00305931A9B04939DED048BCFE4DDE902
:1045600004010E9B0343C1D1C1F31303002BBDD142
:1045700021F00044240D2405B4F1D66F2546B5D9A9
:10458000D9F814301BB9D9F81030012BAEDD4946EB
:1045900001225846FEF716FE51468146FEF786FE7A
:1045A0000028A3DD099B002BB8D0A5F580156FEA84
:1045B00015536FEA035305934FF0FF3304939DEDBA
:1045C000048B7DE74FF00009FFF737BBBCF1000F0C
:1045D0002DD1049B1D4289D0B0EE480AF0EE680A46
:1045E000FEF742FF099B51EC100B002B72D0C6F373
:1045F0000A53C3F16B03002B07DD1C0504F17F5345
:10460000002203F5401303F037FB02460B4651EC42
:10461000180B03F079F902460B4643EC182B0022E5
:10462000002303F091FD00283FF44AAF2DE61CEA79
:10463000060F3FF45BAFCFE7BCF1000FF7D1284284
:104640003FF454AFC8E74FF0FF3202FA03F3049A85
:104650001A400492D8E4099B0499B3B1184A324035
:10466000B2F1D46F11D8120DC2F16B024FF0FF30CE
:1046700000FA02F291420BD0BCF1000F7FF433AF8D
:1046800011EA080F3FF432AFF8E64FF0FF32F1E7DE
:104690000F4A964255D00A4A324002F580130593DC
:1046A000002304939DED048B20E700BFAFF300804F
:1046B000000000000000E0BF000000000000E03F3C
:1046C0000000F07FFFFF0F0000005039BC880000A1
:1046D000FFFFEF7F02460B4651EC180B03F014F975
:1046E000189C02460B4643EC182B0022002325465B
:1046F00003F02AFD00283FF4F9ACC7E5244D35400E
:10470000B5F1D66F3FF651AFB5F15C7F3FF6D8AE4D
:1047100022239FED1B8B189DCBF80030E6E4C2F1FD
:104720004B024FF0FF3393400B4005936CE402467D
:104730000B4651EC180B03F0E9F8189D41EC180BEF
:10474000D4E40131A7D122239FED0F8B189DCBF824
:104750000030CBE40D9B082D03440D9302DC65462D
:10476000FFF7E5B8BCF1100FDCBF09EB890902EBDC
:10477000490965460020FFF7DFB800232EE600BF99
:104780000000000000000000000000000000F07FBA
:104790000000F07F014BFFF703B800BF600000206E
:1047A00010B4054C8446134620685DF8044B0A4655
:1047B0006146FEF7F5BF00BF0C00002010B4054CA9
:1047C000054B84460A4620685DF8044B6146FEF7B7
:1047D000E7BF00BF0C000020600000202DE9F04181
:1047E000DFF8A480044613462DED028B0A46D8F864
:1047F00000002146FEF7D4FF55EC104B22462B4615
:104800002046294603F0D2FC50BB2046294603F03F
:104810002BFD08EE100ADFED197AB0EEC87AB4EE7F
:10482000677AF1EE10FA15DD25F00047144B4FF0D2
:10483000FF322046394603F0B9FC38B9104B4FF02F
:10484000FF322046394603F093FC18B1D8F8003007
:1048500022221A60B0EE480ABDEC028BBDE8F0815E
:10486000002D084804DAFDF737F8B1EE408AF1E789
:10487000BDEC028BBDE8F041FDF72EB8FFFF7F7F56
:10488000FFFFEF7FE08600000C0000202DE9704361
:104890002C4E2D4B04460A462DED028B21463068E6
:1048A000FEF77EFF55EC104B22462B46204629464C
:1048B00003F07CFCC0BB2046294603F0D5FC08EE83
:1048C000100ADFED227AB0EEC87AB4EE677AF1EE24
:1048D00010FA1ADD25F000491D4B4FF0FF3220463B
:1048E000494603F063FC38B9194B204649464FF05E
:1048F000FF3203F03DFC40B1336822221A60B0EE73
:10490000480ABDEC028BBDE8708318EE103A13F034
:10491000FF4FF4D10F4B2B40002BEDD1B0EE480AE6
:10492000BDEC028BBDE87083002D0B4804DAFCF768
:10493000D3FFB1EE408AE2E7BDEC028BBDE87043E5
:10494000FCF7CABF0C00002060000020FFFF7F7F43
:10495000FFFFEF7F0000F07FE0860000242B2DE9B1
:10496000F84F43D8012B41D0804649481F468E4618
:1049700075461EF801BB10F80B4014F00804F7D17F
:10498000BBF12D0F6FD0BBF12B0F08BF9EF800B00D
:104990006FF0004908BF05F1020E73BBBBF1300F89
:1049A0004BD00A273B460025B9FBF7F6284607FB04
:1049B000169A05E03AD007FB00C001251EF801BB9E
:1049C000ABF1300CBCF1090F06D9ABF1410CBCF1D5
:1049D000190F19D8ABF1370C63451EDDB5F1FF3F58
:1049E000ECD08642E6D24FF0FF35E7E700F016FC48
:1049F000162303600020BDE8F88F102BD3D1BBF144
:104A0000300F23D01F46CEE7ABF1610CBCF1190F7C
:104A100003D8ABF1570C6345E0DC6B1C2BD054B9C9
:104A2000002AE8D085BB1160BDE8F88FE245C2DA04
:104A30004FF0FF35C2E74042F2E79EF8003003F046
:104A4000DF03582B08D008273B46ACE79EF8000050
:104A500000F0DF005828D5D110279EF801B03B4662
:104A60000EF1020E9FE79EF800B04FF0004905F1ED
:104A7000020E012491E72223C8F8003032B10EF172
:104A8000FF3148461160CFE78146F8E74846B2E774
:104A9000F988000062E700BF10B4044C8446134656
:104AA00020685DF8044B0A46614657E70C00002079
:104AB00010B4044C8446134620685DF8044B0A4643
:104AC00061464BE70C0000202DE9F0478F681D463A
:104AD000AF420B680C46164636D8B1F90CC01CF430
:104AE000906F0ED13D46184631462A4600F0BEFA78
:104AF000A368DF1B2368A7602B4400202360BDE868
:104B0000F0874A69096902EB42025F1A02EBD2722E
:104B10006B1C52103B44934292BF914699461A46F1
:104B20001CF4806F804611D01146FEF725F88246AE
:104B300000B321693A4600F077FBA38923F4906320
:104B400043F08003A38105E02F46CCE701F084F811
:104B5000824658B10AEB0703A9EB0707A760C4F820
:104B600010A0C4F8149023602F46BCE7216940468A
:104B7000FDF770FFA3890C2243F04003C8F8002022
:104B80004FF0FF30A381BAE72DE9F04F9368176823
:104B900083B09246002B74D04FF0000B8B680A68EC
:104BA00081460C465D4645E0B4F90C3013F4906F35
:104BB0002CD0D4E90401161A01EB410202EBD272A7
:104BC000711C52102944914292BF904688460A4671
:104BD0005B0539D511464846FDF7CEFF0190002808
:104BE0003DD03246216900F01FFBA289019B22F4CF
:104BF000906242F08002A2819819A8EB0606A66096
:104C0000C4F8148023612060A8462E4632465946D7
:104C100000F02CFADAF80810A3682268A3EB080366
:104C20003244491BA3602260CAF8081049B3D7E98F
:104C300000B5083798461046002DF8D09D421E4614
:104C4000B2D2A8462E46E1E70146484601F004F8F4
:104C500003460028D0D121694846FDF7FBFEA38911
:104C60000C2243F04003C9F800204FF0FF30A3812D
:104C700000220023CAF80820CAF8043003B0BDE8B7
:104C8000F08F00200023CAF8043003B0BDE8F08F95
:104C90002DE9F04F1C468B891D069DB08846814644
:104CA000934603D50B69002B00F0F1800023099394
:104CB00043F22003ADF829309BF800307D4D03947A
:104CC0000126002B73D0DA4603E01AF8013F002BCF
:104CD00075D0252BF9D1BAEB0B0473D19AF80020CB
:104CE000002A64D000234FF0FF32CDE905230AF1FA
:104CF000010A049307938DF853301A9305E0049A40
:104D000006FA03F31A430492A2465446052214F805
:104D1000011B2846FCF71CFDA346431B0028EED1CF
:104D2000049BD80644BF20228DF8532019079AF817
:104D3000001044BF2B228DF853202A2950D1039A0A
:104D400011680432002903927CDB07919AF8011064
:104D50002E295BD0584C03222046FCF7F9FC38B1D1
:104D6000049B001B4022824013430BF1010B049370
:104D70001BF8011B51488DF828100622FCF7E8FCAF
:104D8000002865D04E4B002B55D003AA00924D4B06
:104D9000424604A94846FBF719FB07467A1C06D091
:104DA000099B3B4409939BF80030002B8BD1B8F84A
:104DB0000C305B067AD409981DB0BDE8F08FBAEBD1
:104DC0000B04F4D023465A4641464846FFF77CFE82
:104DD0000130ECD0099B9AF80020234409937FE727
:104DE000A1F13002092A88BFD346B1D8079B00E061
:104DF0000134217803EB830302EB4303A1F130027A
:104E0000092AF5D92E290793A346A3D19BF80110AF
:104E10002A2927D1039B9BF802101A6805920433B4
:104E2000002A0BF102000393B8BF4FF0FF33834613
:104E3000B8BF05938EE7039B073323F007030833BE
:104E40000393ADE7494243F00203079104937DE7E2
:104E500003AA00921B4B424604A94846FBF7D6FD25
:104E600007469BE7A1F130020023092A05930BF1C5
:104E7000010B3FF66FAF1BF8011F03EB830302EB3F
:104E80004303A1F13002092AF5D9059362E74021D5
:104E9000FDF772FEC8F80000C8F8100018B14023F2
:104EA000C8F8143002E70C23C9F800304FF0FF3087
:104EB00082E700BF60850000688500006C85000007
:104EC000CD030000C94A0000B1F90C302DE9F041D2
:104ED0001E070C4680463DD44A68002A56DDE56A26
:104EE000002D34D00022D8F80060C8F8002013F458
:104EF0008052216A57D101234046A847451C0246EB
:104F000066D0B4F90C30E56A216A580705D56368A4
:104F1000D21A636B0BB1236CD21A00234046A84708
:104F2000431C42D00023636023692360A389DF040C
:104F300000D56065616BC8F8006041B104F14403BD
:104F4000994202D04046FDF785FD002363630020AF
:104F5000BDE8F0810E69002EF9D09B070D6808BFEF
:104F60004B690E6018BF0023AD1B8B600BE02B4616
:104F70003246216AA76A4046B847B0F1000CA5EB5B
:104F80000C05664406DD002DF1DCE0E70A6C002A22
:104F9000A5DCDCE7B4F90C3043F04003A3814FF00B
:104FA000FF30BDE8F081626DAFE7D8F80010B4F9CA
:104FB0000C301D29F0D80C4ACA40D507ECD522691F
:104FC000226000226260DA04B4D50029B1D0B1E7D2
:104FD000D8F80030002B94D01D2B01D0162BD9D13E
:104FE000C8F80060B3E700BF0100402038B50B6986
:104FF000CBB10C46054608B1036ABBB1B4F90C301D
:105000008BB1626ED00701D4990512D5284621468E
:10501000FFF75AFF636EDA07054602D4A3899B05A2
:105020000BD5284638BD0025284638BDFCF794F935
:10503000E4E7A06DFCF782FBE8E7A06DFCF786FBD8
:10504000EFE700BF014618B1044B1868FFF7CEBF69
:10505000034A04490448FCF7CFB900BF0C00002004
:1050600000000020ED4F00001000002088420ED903
:105070008B1883420BD900EB020C002A6ED06246DB
:1050800013F801CD02F801CD9942F9D170470F2AEA
:105090000FD8034602F1FF3C002A5FD00CF1010C4F
:1050A000013B8C4411F8012B03F8012F6145F9D124
:1050B000704740EA01039B0751D1A2F1100370B57C
:1050C00001F1200C23F00F0501F1100E00F1100486
:1050D000AC441B095EF8105C44F8105C5EF80C5C94
:1050E00044F80C5C5EF8085C44F8085C5EF8045C0C
:1050F00044F8045C0EF1100EE64504F11004E9D109
:10510000013312F00C0F01EB031102F00F0400EB5E
:10511000031328D0043C24F003064FEA940C1E44E9
:105120001C1F8E465EF8045B44F8045FB442F9D15C
:105130000CF1010402F0030203EB840301EB840190
:1051400002F1FF3C4AB10CF1010C013B8C4411F817
:10515000012B03F8012F6145F9D170BD704702F1B1
:10516000FF3C03469AE72246EAE700BF002A3ED00A
:1051700030B584460446084380070B462ED1032AE7
:1051800007D82BE0043A25D01EF0803F22D1032A15
:1051900022D92068194653F8045BA0F1013EA842C9
:1051A000A4462EEA000E04F10404EBD09CF80000A3
:1051B0000C7884421DD1E64668B11EF8010F11F843
:1051C000014FA2EB0E03A04203F1FF3311D11CEB00
:1051D0000303F1D1002030BDA44619469CF800001D
:1051E0000C78A04205D1012AF4D0E646E4E7104647
:1051F0007047001B30BD00BF38B5074D0022044684
:1052000008462A6003F00AF9431C00D038BD2B6819
:10521000002BFBD0236038BD30030020014B186801
:10522000704700BF0C000020844641EA000313F0E1
:1052300003036DD1403A41D351F8043B40F8043B9D
:1052400051F8043B40F8043B51F8043B40F8043B60
:1052500051F8043B40F8043B51F8043B40F8043B50
:1052600051F8043B40F8043B51F8043B40F8043B40
:1052700051F8043B40F8043B51F8043B40F8043B30
:1052800051F8043B40F8043B51F8043B40F8043B20
:1052900051F8043B40F8043B51F8043B40F8043B10
:1052A00051F8043B40F8043B51F8043B40F8043B00
:1052B00051F8043B40F8043B403ABDD2303211D3A0
:1052C00051F8043B40F8043B51F8043B40F8043BE0
:1052D00051F8043B40F8043B51F8043B40F8043BD0
:1052E000103AEDD20C3205D351F8043B40F8043BA0
:1052F000043AF9D2043208D0D2071CBF11F8013B9E
:1053000000F8013B01D30B8803806046704700BF63
:10531000082A13D38B078DD010F003038AD0C3F172
:105320000403D21ADB071CBF11F8013B00F8013B54
:1053300080D331F8023B20F8023B7BE7043AD9D313
:10534000013A11F8013B00F8013BF9D20B780370E8
:105350004B7843708B788370604670470000000084
:105360009FED010B704700BF000000000000F87FB8
:1053700000B50B4C25681446EE681A4685B0034606
:105380000D464CB107490095CDE901143046064958
:1053900000F0BAFC00F0CCFC04490C46F3E700BF77
:1053A0000C0000208085000090850000E086000051
:1053B00008B513460022FFF7DBFF00BF70B5A1FB65
:1053C000025454B92946FDF7D7FB064618B12A46C0
:1053D0002146FCF7BDF8304670BD0C220260002665
:1053E000F9E700BF2DE9F0410469B4EB611F05DC6A
:1053F0000023036100234361BDE8F08100F114053F
:105400004E1111F01F0C05EB840E05EB860321D025
:1054100055F8261004339E4521FA0CF1CCF12008F2
:105420002DD92F461A6802FA08F20A4347F8042BCE
:1054300053F8041B9E4521FA0CF1F3D8A31B9B00E3
:10544000053B9B08013305EB830445F8231079B134
:1054500004340DE09E4588BF00F11002C8D953F80E
:10546000041B42F8041F9E45F9D8A41B05EB8404D5
:10547000631B9B10AC420361BCD0BDE8F08141616D
:105480000029B5D02C46E3E72DE9F04F0F6885B031
:10549000CDE90020BA780393302A894640F0EC81A8
:1054A000FB1C1A78302A1C4603F10103F9D0E71BD4
:1054B000023FDFF8008318F80230002B00F0EE8086
:1054C000237818F803304FF0000A5546002B00F0FF
:1054D0006D81264616F8013F18F80330002BF9D1EC
:1054E000B34901223046FFF741FE834600284CD0E5
:1054F0003278002D00F0A181AB1B4FEA830B02F044
:10550000DF02502A35464CD0C9F80060BAF1000FCE
:1055100074D12A1B013A072A514604DD5210072A8A
:1055200001F10101FADC0198FDF7B2FB8246002887
:1055300000F05F8200F11406A542029666D90027AA
:10554000B9460DE0202F1AD03A4604372B7818F8C8
:10555000033003F00F03934049EA0309A54258D0F2
:1055600015F8013D2E2BEDD1A542EBD39049012238
:105570002846FFF7FBFD0028F0D0202FE4D10022C1
:1055800046F8049B04279146E0E7002D00F0658172
:10559000327802F0DF02AB1B502A4FEA830B35460C
:1055A000B2D16A782B2A00F046812D2A40F0D380B0
:1055B0000120AA7818F802104A1E182A05F10206DE
:1055C00000F2D380727818F80220103901365AB9E7
:1055D0000CE001EB810116F8013F02EB4102A2F160
:1055E000100118F803200AB1192AF2DD00B149426E
:1055F0008B44C9F80060BAF1000F8AD0002F0CBFAD
:1056000006250025284605B0BDE8F08F029E4FF024
:10561000000946F8049B029BF61AB610CAF81060FF
:105620004846FDF741FC009B76011C68361AA642ED
:1056300074DCC0F204810027009B9A685A45C0F2CE
:105640003B81009B5A685A454BDDA2EB0B0B5C4536
:1056500000F38D80DB68022B00F0DD80032B00F06F
:105660004A81012B40F0DB805C4540F0D880012C62
:1056700008D0611E5046FEF765F8002800F0CF8084
:10568000009B5A6803990A60029A0123CAF81030F5
:1056900013600E9B6225C3F800A0B3E744490122C2
:1056A0002046FFF763FD8246002840F0858063783E
:1056B00018F80320651C002A00F08080302B2C464F
:1056C00040F0248114F8013F302BFBD018F8033050
:1056D000B3FA83FA01274FEA5A1A002B7FF4F9AE86
:1056E00064E0012587B1009BDA68022A6ED0032AA4
:1056F00070D0012A06D1B90704D5029B1A68174356
:10570000FA076AD445F010050E9BC3F800A0039B6E
:105710002846C3F800B005B0BDE8F08F361B31460F
:105720005046FEF70FF8074678B1711E4A11029BEA
:10573000012753F8220001F01F0207FA02F2024289
:1057400003D0B94200F3C980022731465046FFF723
:1057500049FEB34470E718F802104A1E182A05F1F2
:1057600001064FF000007FF62DAF2E46CCE60BF180
:10577000FF36002F40F0A980002E40F0A880731162
:10578000029A06F01F0652F823200123B340134269
:105790005946504618BF47F00207FFF723FE009B0B
:1057A000A4EB0B040225D3F804B09BE7264697E64A
:1057B0004C850000FC8900002378254603F0DF03B8
:1057C000502B00F09380C9F8005017E70F9BC3F1EE
:1057D00001030F930F9B002B94D0DAF81070029AFC
:1057E0004FEA8709904602EB8706002003E09642C5
:1057F00042F8040C43D9944652F8041B4B1CF6D0D3
:105800000131022DCCF8001079D014F01F0440F0C3
:10581000A580212578E70F9B002B3FF433AF01983B
:105820005146FDF775FA50250E9A0023284613605D
:1058300005B0BDE8F08F0020BBE6AB465FE6A61BD7
:10584000514601983246FDF7BDFC00F11403ABEB65
:10585000060B824602930027EEE6727818F80210D3
:10586000751C2E4600293FF44AAE16F8012F18F891
:105870000230002BF9D13FE6BC1C002719E6DAF80C
:105880000820974244DA0AEB87017A1C0120022D96
:10589000CAF81020DDF80880486130D0002A6ADCA0
:1058A0000022CAF810200022CAF81420009B9A682F
:1058B0000BF1010B5A45ACDA01985146FDF728FA75
:1058C0000E9A0023A32513609CE6012757E7314673
:1058D0005046FDF737FF074651E7B11E5046FDF72A
:1058E00031FF00283FF430AF03272EE74FF0000BC5
:1058F0004FF0010A55E60F9B002B90D0C2E6009BAB
:105900001A68013AA24260D02225FDE60127E0E5AF
:10591000DAF8041001980131FDF7BAF906460028BB
:105920006DD0DAF81020023292000AF10C010C302E
:10593000FFF77AFC51460198FDF7EAF93269012038
:1059400006EB8201022D0244326106F1140848611F
:10595000B246D4D09742BFF658AF9FE7C144C4F1D6
:10596000200459F8040CFDF79FFAA042BFF651AF8E
:10597000DAF8102092E708EB82040AF11800DAF84E
:10598000142084424FEA52022BD94546036842EA6A
:10599000C37245F8042B50F8042B84424FEA52029C
:1059A000F4D8A4EB0A0119398908013148F82120FB
:1059B00008EB810102B10431A1EB080292104145CC
:1059C000CAF810207FF472AF6DE7621104F01F0473
:1059D00058F822100122A2400A4214BF2125222594
:1059E00092E6C8F800200AB14146E4E7CAF8102060
:1059F00059E7064B06485246E421FFF7B9FC034B32
:105A0000034832468421FFF7B3FC00BFFC8400004A
:105A1000C085000010B40468013409E014F8013BAB
:105A2000A3F1410CBCF1190F98BF2033934208D168
:105A300011F8012B002AF1D1046001205DF8044B1C
:105A4000704700205DF8044B704700BF09682DE9DE
:105A5000F04F4B1102EB830311F01F0B07460CBFF5
:105A60001846181D3C680CBF1D1F1D46002385B03D
:105A700040F8043C61780134002900F0A8809E467B
:105A80009A461E460B4601461046DFF8889101975C
:105A90005A46A846AC46834610E0202B00F28F8081
:105AA000564508DDE04502D9BEF1070F5FDDE3454D
:105AB00054D34FF0080E14F8013FB3B119F8037036
:105AC000002FEAD00EF1010EBEF1080F06F101061B
:105AD0003ADCDCF800301B0107F00F071F43CCF85D
